{
  "contractName": "Account",
  "abi": [
    {
      "constant": true,
      "inputs": [],
      "name": "balance",
      "outputs": [
        {
          "name": "",
          "type": "uint256"
        }
      ],
      "payable": false,
      "stateMutability": "view",
      "type": "function",
      "signature": "0xb69ef8a8"
    },
    {
      "inputs": [],
      "payable": false,
      "stateMutability": "nonpayable",
      "type": "constructor",
      "signature": "constructor"
    },
    {
      "constant": false,
      "inputs": [
        {
          "name": "amount",
          "type": "uint256"
        }
      ],
      "name": "deposit",
      "outputs": [],
      "payable": false,
      "stateMutability": "nonpayable",
      "type": "function",
      "signature": "0xb6b55f25"
    },
    {
      "constant": false,
      "inputs": [
        {
          "name": "amount",
          "type": "uint256"
        }
      ],
      "name": "withdraw",
      "outputs": [],
      "payable": false,
      "stateMutability": "nonpayable",
      "type": "function",
      "signature": "0x2e1a7d4d"
    }
  ],
  "bytecode": "0x60806040526000805534801561001457600080fd5b506101cd806100246000396000f3fe608060405260043610610057576000357c0100000000000000000000000000000000000000000000000000000000900463ffffffff1680632e1a7d4d1461005c578063b69ef8a814610097578063b6b55f25146100c2575b600080fd5b34801561006857600080fd5b506100956004803603602081101561007f57600080fd5b81019080803590602001909291905050506100fd565b005b3480156100a357600080fd5b506100ac610189565b6040518082815260200191505060405180910390f35b3480156100ce57600080fd5b506100fb600480360360208110156100e557600080fd5b810190808035906020019092919050505061018f565b005b8060005410151515610177576040517f08c379a000000000000000000000000000000000000000000000000000000000815260040180806020018281038252601e8152602001807f4163636f756e742068617320696e73756666696369656e742066756e6473000081525060200191505060405180910390fd5b80600080828254039250508190555050565b60005481565b8060008082825401925050819055505056fea165627a7a7230582079e5a575fdaee082fdaf06c1beea809b3edbaa82f624919d14f98830106d3f610029",
  "source": "pragma solidity ^0.5.0;\r\n\r\ncontract Account {\r\n  uint256 public balance = 0;\r\n\r\n  constructor() public {\r\n  }\r\n\r\n  function deposit (uint amount) public {\r\n    balance += amount;\r\n  }\r\n\r\n  function withdraw (uint amount) public {\r\n    require(balance >= amount, \"Account has insufficient funds\");\r\n    balance -= amount;\r\n  }\r\n}\r\n",
  "sourcePath": "C:/Users/Flak/Documents/Dev/react-eth-bank-account/contracts/Account.sol",
  "compiler": {
    "name": "solc",
    "version": "0.5.0+commit.1d4f565a.Emscripten.clang"
  },
  "schemaVersion": "3.0.1",
  "updatedAt": "2022-02-07T06:52:37.926Z",
  "devdoc": {
    "methods": {}
  },
  "userdoc": {
    "methods": {}
  }
}